{
  "_format": "hh-sol-artifact-1",
  "contractName": "Genesis_Voxmon",
  "sourceName": "contracts/GenesisVoxmon.sol",
  "abi": [
    {
      "inputs": [
        {
          "internalType": "address payable",
          "name": "addr",
          "type": "address"
        }
      ],
      "stateMutability": "nonpayable",
      "type": "constructor"
    },
    {
      "anonymous": false,
      "inputs": [
        {
          "indexed": true,
          "internalType": "address",
          "name": "owner",
          "type": "address"
        },
        {
          "indexed": true,
          "internalType": "address",
          "name": "approved",
          "type": "address"
        },
        {
          "indexed": true,
          "internalType": "uint256",
          "name": "tokenId",
          "type": "uint256"
        }
      ],
      "name": "Approval",
      "type": "event"
    },
    {
      "anonymous": false,
      "inputs": [
        {
          "indexed": true,
          "internalType": "address",
          "name": "owner",
          "type": "address"
        },
        {
          "indexed": true,
          "internalType": "address",
          "name": "operator",
          "type": "address"
        },
        {
          "indexed": false,
          "internalType": "bool",
          "name": "approved",
          "type": "bool"
        }
      ],
      "name": "ApprovalForAll",
      "type": "event"
    },
    {
      "anonymous": false,
      "inputs": [
        {
          "indexed": true,
          "internalType": "address",
          "name": "previousOwner",
          "type": "address"
        },
        {
          "indexed": true,
          "internalType": "address",
          "name": "newOwner",
          "type": "address"
        }
      ],
      "name": "OwnershipTransferred",
      "type": "event"
    },
    {
      "anonymous": false,
      "inputs": [
        {
          "indexed": true,
          "internalType": "address",
          "name": "from",
          "type": "address"
        },
        {
          "indexed": true,
          "internalType": "address",
          "name": "to",
          "type": "address"
        },
        {
          "indexed": true,
          "internalType": "uint256",
          "name": "tokenId",
          "type": "uint256"
        }
      ],
      "name": "Transfer",
      "type": "event"
    },
    {
      "anonymous": false,
      "inputs": [
        {
          "indexed": true,
          "internalType": "address",
          "name": "requestor",
          "type": "address"
        },
        {
          "indexed": false,
          "internalType": "uint256",
          "name": "tokenId",
          "type": "uint256"
        }
      ],
      "name": "artRequestedEvent",
      "type": "event"
    },
    {
      "anonymous": false,
      "inputs": [
        {
          "indexed": true,
          "internalType": "address",
          "name": "recipient",
          "type": "address"
        },
        {
          "indexed": false,
          "internalType": "uint256",
          "name": "tokenId",
          "type": "uint256"
        },
        {
          "indexed": false,
          "internalType": "uint256",
          "name": "metadataId",
          "type": "uint256"
        }
      ],
      "name": "mintEvent",
      "type": "event"
    },
    {
      "anonymous": false,
      "inputs": [
        {
          "indexed": true,
          "internalType": "address",
          "name": "requestor",
          "type": "address"
        },
        {
          "indexed": false,
          "internalType": "uint256",
          "name": "tokenId",
          "type": "uint256"
        },
        {
          "indexed": false,
          "internalType": "uint256",
          "name": "newMetadataId",
          "type": "uint256"
        }
      ],
      "name": "rerollEvent",
      "type": "event"
    },
    {
      "inputs": [],
      "name": "MAX_SUPPLY",
      "outputs": [
        {
          "internalType": "uint16",
          "name": "",
          "type": "uint16"
        }
      ],
      "stateMutability": "view",
      "type": "function"
    },
    {
      "inputs": [],
      "name": "MINT_COST",
      "outputs": [
        {
          "internalType": "uint256",
          "name": "",
          "type": "uint256"
        }
      ],
      "stateMutability": "view",
      "type": "function"
    },
    {
      "inputs": [],
      "name": "REROLL_COST",
      "outputs": [
        {
          "internalType": "uint256",
          "name": "",
          "type": "uint256"
        }
      ],
      "stateMutability": "view",
      "type": "function"
    },
    {
      "inputs": [],
      "name": "__baseURI",
      "outputs": [
        {
          "internalType": "string",
          "name": "",
          "type": "string"
        }
      ],
      "stateMutability": "view",
      "type": "function"
    },
    {
      "inputs": [],
      "name": "__lockedBaseURI",
      "outputs": [
        {
          "internalType": "string",
          "name": "",
          "type": "string"
        }
      ],
      "stateMutability": "view",
      "type": "function"
    },
    {
      "inputs": [
        {
          "internalType": "address",
          "name": "to",
          "type": "address"
        },
        {
          "internalType": "uint256",
          "name": "tokenId",
          "type": "uint256"
        }
      ],
      "name": "approve",
      "outputs": [],
      "stateMutability": "nonpayable",
      "type": "function"
    },
    {
      "inputs": [],
      "name": "artStartTime",
      "outputs": [
        {
          "internalType": "uint256",
          "name": "",
          "type": "uint256"
        }
      ],
      "stateMutability": "view",
      "type": "function"
    },
    {
      "inputs": [
        {
          "internalType": "address",
          "name": "owner",
          "type": "address"
        }
      ],
      "name": "balanceOf",
      "outputs": [
        {
          "internalType": "uint256",
          "name": "",
          "type": "uint256"
        }
      ],
      "stateMutability": "view",
      "type": "function"
    },
    {
      "inputs": [],
      "name": "defaultRoyaltyInfo",
      "outputs": [
        {
          "internalType": "address",
          "name": "receiver",
          "type": "address"
        },
        {
          "internalType": "uint96",
          "name": "royaltyFraction",
          "type": "uint96"
        }
      ],
      "stateMutability": "view",
      "type": "function"
    },
    {
      "inputs": [],
      "name": "destroy",
      "outputs": [],
      "stateMutability": "nonpayable",
      "type": "function"
    },
    {
      "inputs": [
        {
          "internalType": "uint256",
          "name": "tokenId",
          "type": "uint256"
        }
      ],
      "name": "freeReroll",
      "outputs": [
        {
          "internalType": "uint256",
          "name": "",
          "type": "uint256"
        }
      ],
      "stateMutability": "nonpayable",
      "type": "function"
    },
    {
      "inputs": [
        {
          "internalType": "uint256",
          "name": "tokenId",
          "type": "uint256"
        }
      ],
      "name": "getApproved",
      "outputs": [
        {
          "internalType": "address",
          "name": "",
          "type": "address"
        }
      ],
      "stateMutability": "view",
      "type": "function"
    },
    {
      "inputs": [
        {
          "internalType": "uint256",
          "name": "tokenId",
          "type": "uint256"
        }
      ],
      "name": "getMetadataIdForTokenId",
      "outputs": [
        {
          "internalType": "uint256",
          "name": "",
          "type": "uint256"
        }
      ],
      "stateMutability": "view",
      "type": "function"
    },
    {
      "inputs": [
        {
          "internalType": "address",
          "name": "addr",
          "type": "address"
        }
      ],
      "name": "getRemainingPreReleaseMintsForAddress",
      "outputs": [
        {
          "internalType": "uint16",
          "name": "",
          "type": "uint16"
        }
      ],
      "stateMutability": "view",
      "type": "function"
    },
    {
      "inputs": [
        {
          "internalType": "address",
          "name": "addr",
          "type": "address"
        }
      ],
      "name": "getRemainingRerollsForAddress",
      "outputs": [
        {
          "internalType": "uint16",
          "name": "",
          "type": "uint16"
        }
      ],
      "stateMutability": "view",
      "type": "function"
    },
    {
      "inputs": [],
      "name": "getTotalMinted",
      "outputs": [
        {
          "internalType": "uint256",
          "name": "",
          "type": "uint256"
        }
      ],
      "stateMutability": "view",
      "type": "function"
    },
    {
      "inputs": [],
      "name": "getTotalRerolls",
      "outputs": [
        {
          "internalType": "uint256",
          "name": "",
          "type": "uint256"
        }
      ],
      "stateMutability": "view",
      "type": "function"
    },
    {
      "inputs": [
        {
          "internalType": "address",
          "name": "owner",
          "type": "address"
        },
        {
          "internalType": "address",
          "name": "operator",
          "type": "address"
        }
      ],
      "name": "isApprovedForAll",
      "outputs": [
        {
          "internalType": "bool",
          "name": "",
          "type": "bool"
        }
      ],
      "stateMutability": "view",
      "type": "function"
    },
    {
      "inputs": [
        {
          "internalType": "address",
          "name": "recipient",
          "type": "address"
        },
        {
          "internalType": "uint256",
          "name": "numberToMint",
          "type": "uint256"
        }
      ],
      "name": "mint",
      "outputs": [
        {
          "internalType": "uint256[]",
          "name": "",
          "type": "uint256[]"
        }
      ],
      "stateMutability": "payable",
      "type": "function"
    },
    {
      "inputs": [
        {
          "internalType": "address",
          "name": "recipient",
          "type": "address"
        }
      ],
      "name": "mint",
      "outputs": [
        {
          "internalType": "uint256",
          "name": "",
          "type": "uint256"
        }
      ],
      "stateMutability": "payable",
      "type": "function"
    },
    {
      "inputs": [],
      "name": "name",
      "outputs": [
        {
          "internalType": "string",
          "name": "",
          "type": "string"
        }
      ],
      "stateMutability": "view",
      "type": "function"
    },
    {
      "inputs": [],
      "name": "owner",
      "outputs": [
        {
          "internalType": "address",
          "name": "",
          "type": "address"
        }
      ],
      "stateMutability": "view",
      "type": "function"
    },
    {
      "inputs": [
        {
          "internalType": "uint256",
          "name": "tokenId",
          "type": "uint256"
        }
      ],
      "name": "ownerOf",
      "outputs": [
        {
          "internalType": "address",
          "name": "",
          "type": "address"
        }
      ],
      "stateMutability": "view",
      "type": "function"
    },
    {
      "inputs": [
        {
          "internalType": "address",
          "name": "recipient",
          "type": "address"
        }
      ],
      "name": "preReleaseMint",
      "outputs": [
        {
          "internalType": "uint256",
          "name": "",
          "type": "uint256"
        }
      ],
      "stateMutability": "nonpayable",
      "type": "function"
    },
    {
      "inputs": [
        {
          "internalType": "address",
          "name": "recipient",
          "type": "address"
        },
        {
          "internalType": "uint256",
          "name": "numberToMint",
          "type": "uint256"
        }
      ],
      "name": "preReleaseMint",
      "outputs": [
        {
          "internalType": "uint256[]",
          "name": "",
          "type": "uint256[]"
        }
      ],
      "stateMutability": "nonpayable",
      "type": "function"
    },
    {
      "inputs": [],
      "name": "renounceOwnership",
      "outputs": [],
      "stateMutability": "nonpayable",
      "type": "function"
    },
    {
      "inputs": [
        {
          "internalType": "uint256",
          "name": "tokenId",
          "type": "uint256"
        }
      ],
      "name": "request3DArt",
      "outputs": [],
      "stateMutability": "nonpayable",
      "type": "function"
    },
    {
      "inputs": [
        {
          "internalType": "uint256",
          "name": "tokenId",
          "type": "uint256"
        }
      ],
      "name": "reroll",
      "outputs": [
        {
          "internalType": "uint256",
          "name": "",
          "type": "uint256"
        }
      ],
      "stateMutability": "payable",
      "type": "function"
    },
    {
      "inputs": [
        {
          "internalType": "uint256",
          "name": "_tokenId",
          "type": "uint256"
        },
        {
          "internalType": "uint256",
          "name": "_salePrice",
          "type": "uint256"
        }
      ],
      "name": "royaltyInfo",
      "outputs": [
        {
          "internalType": "address",
          "name": "receiver",
          "type": "address"
        },
        {
          "internalType": "uint256",
          "name": "royaltyAmount",
          "type": "uint256"
        }
      ],
      "stateMutability": "view",
      "type": "function"
    },
    {
      "inputs": [
        {
          "internalType": "address",
          "name": "from",
          "type": "address"
        },
        {
          "internalType": "address",
          "name": "to",
          "type": "address"
        },
        {
          "internalType": "uint256",
          "name": "tokenId",
          "type": "uint256"
        }
      ],
      "name": "safeTransferFrom",
      "outputs": [],
      "stateMutability": "nonpayable",
      "type": "function"
    },
    {
      "inputs": [
        {
          "internalType": "address",
          "name": "from",
          "type": "address"
        },
        {
          "internalType": "address",
          "name": "to",
          "type": "address"
        },
        {
          "internalType": "uint256",
          "name": "tokenId",
          "type": "uint256"
        },
        {
          "internalType": "bytes",
          "name": "_data",
          "type": "bytes"
        }
      ],
      "name": "safeTransferFrom",
      "outputs": [],
      "stateMutability": "nonpayable",
      "type": "function"
    },
    {
      "inputs": [
        {
          "internalType": "address",
          "name": "operator",
          "type": "address"
        },
        {
          "internalType": "bool",
          "name": "approved",
          "type": "bool"
        }
      ],
      "name": "setApprovalForAll",
      "outputs": [],
      "stateMutability": "nonpayable",
      "type": "function"
    },
    {
      "inputs": [
        {
          "internalType": "uint256",
          "name": "newArtStartTime",
          "type": "uint256"
        }
      ],
      "name": "setArtStartingTime",
      "outputs": [],
      "stateMutability": "nonpayable",
      "type": "function"
    },
    {
      "inputs": [
        {
          "internalType": "string",
          "name": "uri",
          "type": "string"
        }
      ],
      "name": "setBaseURI",
      "outputs": [],
      "stateMutability": "nonpayable",
      "type": "function"
    },
    {
      "inputs": [
        {
          "internalType": "string",
          "name": "uri",
          "type": "string"
        }
      ],
      "name": "setLockedBaseURI",
      "outputs": [],
      "stateMutability": "nonpayable",
      "type": "function"
    },
    {
      "inputs": [
        {
          "internalType": "uint256",
          "name": "newStartTime",
          "type": "uint256"
        }
      ],
      "name": "setStartingTime",
      "outputs": [],
      "stateMutability": "nonpayable",
      "type": "function"
    },
    {
      "inputs": [],
      "name": "startingTime",
      "outputs": [
        {
          "internalType": "uint256",
          "name": "",
          "type": "uint256"
        }
      ],
      "stateMutability": "view",
      "type": "function"
    },
    {
      "inputs": [
        {
          "internalType": "bytes4",
          "name": "interfaceId",
          "type": "bytes4"
        }
      ],
      "name": "supportsInterface",
      "outputs": [
        {
          "internalType": "bool",
          "name": "",
          "type": "bool"
        }
      ],
      "stateMutability": "view",
      "type": "function"
    },
    {
      "inputs": [],
      "name": "symbol",
      "outputs": [
        {
          "internalType": "string",
          "name": "",
          "type": "string"
        }
      ],
      "stateMutability": "view",
      "type": "function"
    },
    {
      "inputs": [
        {
          "internalType": "uint256",
          "name": "tokenId",
          "type": "uint256"
        }
      ],
      "name": "tokenHasRequested3DArt",
      "outputs": [
        {
          "internalType": "bool",
          "name": "",
          "type": "bool"
        }
      ],
      "stateMutability": "view",
      "type": "function"
    },
    {
      "inputs": [
        {
          "internalType": "uint256",
          "name": "tokenId",
          "type": "uint256"
        }
      ],
      "name": "tokenURI",
      "outputs": [
        {
          "internalType": "string",
          "name": "",
          "type": "string"
        }
      ],
      "stateMutability": "view",
      "type": "function"
    },
    {
      "inputs": [
        {
          "internalType": "address",
          "name": "from",
          "type": "address"
        },
        {
          "internalType": "address",
          "name": "to",
          "type": "address"
        },
        {
          "internalType": "uint256",
          "name": "tokenId",
          "type": "uint256"
        }
      ],
      "name": "transferFrom",
      "outputs": [],
      "stateMutability": "nonpayable",
      "type": "function"
    },
    {
      "inputs": [
        {
          "internalType": "address",
          "name": "newOwner",
          "type": "address"
        }
      ],
      "name": "transferOwnership",
      "outputs": [],
      "stateMutability": "nonpayable",
      "type": "function"
    },
    {
      "inputs": [
        {
          "internalType": "address",
          "name": "newAddr",
          "type": "address"
        },
        {
          "internalType": "uint96",
          "name": "newPerc",
          "type": "uint96"
        }
      ],
      "name": "updateDefaultRoyalty",
      "outputs": [],
      "stateMutability": "nonpayable",
      "type": "function"
    },
    {
      "inputs": [
        {
          "internalType": "uint256",
          "name": "_tokenId",
          "type": "uint256"
        },
        {
          "internalType": "address",
          "name": "_receiver",
          "type": "address"
        },
        {
          "internalType": "uint96",
          "name": "_amountBasis",
          "type": "uint96"
        }
      ],
      "name": "updateRoyaltyInfoForToken",
      "outputs": [],
      "stateMutability": "nonpayable",
      "type": "function"
    },
    {
      "inputs": [
        {
          "internalType": "uint256",
          "name": "_amount",
          "type": "uint256"
        }
      ],
      "name": "withdraw",
      "outputs": [],
      "stateMutability": "nonpayable",
      "type": "function"
    }
  ],
  "bytecode": "0x60806040526040518060400160405280601881526020017f68747470733a2f2f766f786d6f6e2e696f2f746f6b656e2f0000000000000000815250600b908051906020019062000051929190620009b2565b506040518060400160405280601981526020017f68747470733a2f2f766f786d6f6e2e696f2f6c6f636b65642f00000000000000815250600c90805190602001906200009f929190620009b2565b5060405180606001604052807317f6ad8ef982297579c203069c1dbffe4348c37273ffffffffffffffffffffffffffffffffffffffff1673ffffffffffffffffffffffffffffffffffffffff168152602001735c6b0f7bf3e7ce046039bd8fabdfd3f9f502167873ffffffffffffffffffffffffffffffffffffffff1673ffffffffffffffffffffffffffffffffffffffff1681526020017303c6fced478cbbc9a4fab34ef9f40767739d1ff773ffffffffffffffffffffffffffffffffffffffff1673ffffffffffffffffffffffffffffffffffffffff1681525060149060036200018d92919062000a43565b5060405180604001604052807378731d3ca6b7e34ac0f824c42a7cc18a495cabab73ffffffffffffffffffffffffffffffffffffffff1673ffffffffffffffffffffffffffffffffffffffff16815260200173617f2e2fd72fd9d5503197092ac168c91465e7f273ffffffffffffffffffffffffffffffffffffffff1673ffffffffffffffffffffffffffffffffffffffff1681525060159060026200023592919062000ad2565b50604051806040016040528073ab8483f64d9c6d1ecf9b849ae677dd3315835cb273ffffffffffffffffffffffffffffffffffffffff1673ffffffffffffffffffffffffffffffffffffffff168152602001734b20993bc481177ec7e8f571cecae8a9e22c02db73ffffffffffffffffffffffffffffffffffffffff1673ffffffffffffffffffffffffffffffffffffffff168152506016906002620002dd92919062000ad2565b50348015620002eb57600080fd5b506040516200646f3803806200646f833981810160405281019062000311919062000b97565b6040518060400160405280600e81526020017f47656e6573697320566f786d6f6e0000000000000000000000000000000000008152506040518060400160405280600581526020017f564f584d4e000000000000000000000000000000000000000000000000000000815250816000908051906020019062000395929190620009b2565b508060019080519060200190620003ae929190620009b2565b505050620003d1620003c5620008e460201b60201c565b620008ec60201b60201c565b60005b601480549050811015620004b857600a601060006014848154811062000423577f4e487b7100000000000000000000000000000000000000000000000000000000600052603260045260246000fd5b9060005260206000200160009054906101000a900473ffffffffffffffffffffffffffffffffffffffff1673ffffffffffffffffffffffffffffffffffffffff1673ffffffffffffffffffffffffffffffffffffffff16815260200190815260200160002060006101000a81548161ffff021916908361ffff1602179055508080620004af9062000c37565b915050620003d4565b5060005b6015805490508110156200066057600a60106000601584815481106200050b577f4e487b7100000000000000000000000000000000000000000000000000000000600052603260045260246000fd5b9060005260206000200160009054906101000a900473ffffffffffffffffffffffffffffffffffffffff1673ffffffffffffffffffffffffffffffffffffffff1673ffffffffffffffffffffffffffffffffffffffff16815260200190815260200160002060006101000a81548161ffff021916908361ffff16021790555060016011600060158481548110620005cb577f4e487b7100000000000000000000000000000000000000000000000000000000600052603260045260246000fd5b9060005260206000200160009054906101000a900473ffffffffffffffffffffffffffffffffffffffff1673ffffffffffffffffffffffffffffffffffffffff1673ffffffffffffffffffffffffffffffffffffffff16815260200190815260200160002060006101000a81548161ffff021916908361ffff1602179055508080620006579062000c37565b915050620004bc565b5060005b601680549050811015620008085760196010600060168481548110620006b3577f4e487b7100000000000000000000000000000000000000000000000000000000600052603260045260246000fd5b9060005260206000200160009054906101000a900473ffffffffffffffffffffffffffffffffffffffff1673ffffffffffffffffffffffffffffffffffffffff1673ffffffffffffffffffffffffffffffffffffffff16815260200190815260200160002060006101000a81548161ffff021916908361ffff1602179055506005601160006016848154811062000773577f4e487b7100000000000000000000000000000000000000000000000000000000600052603260045260246000fd5b9060005260206000200160009054906101000a900473ffffffffffffffffffffffffffffffffffffffff1673ffffffffffffffffffffffffffffffffffffffff1673ffffffffffffffffffffffffffffffffffffffff16815260200190815260200160002060006101000a81548161ffff021916908361ffff1602179055508080620007ff9062000c37565b91505062000664565b506361efbe49600d8190555063624d3a70600e8190555060405180604001604052808273ffffffffffffffffffffffffffffffffffffffff1681526020016103e86bffffffffffffffffffffffff16815250600960008201518160000160006101000a81548173ffffffffffffffffffffffffffffffffffffffff021916908373ffffffffffffffffffffffffffffffffffffffff16021790555060208201518160000160146101000a8154816bffffffffffffffffffffffff02191690836bffffffffffffffffffffffff1602179055509050505062000cfd565b600033905090565b6000600660009054906101000a900473ffffffffffffffffffffffffffffffffffffffff16905081600660006101000a81548173ffffffffffffffffffffffffffffffffffffffff021916908373ffffffffffffffffffffffffffffffffffffffff1602179055508173ffffffffffffffffffffffffffffffffffffffff168173ffffffffffffffffffffffffffffffffffffffff167f8be0079c531659141344cd1fd0a4f28419497f9722a3daafe3b4186f6b6457e060405160405180910390a35050565b828054620009c09062000c01565b90600052602060002090601f016020900481019282620009e4576000855562000a30565b82601f10620009ff57805160ff191683800117855562000a30565b8280016001018555821562000a30579182015b8281111562000a2f57825182559160200191906001019062000a12565b5b50905062000a3f919062000b61565b5090565b82805482825590600052602060002090810192821562000abf579160200282015b8281111562000abe5782518260006101000a81548173ffffffffffffffffffffffffffffffffffffffff021916908373ffffffffffffffffffffffffffffffffffffffff1602179055509160200191906001019062000a64565b5b50905062000ace919062000b61565b5090565b82805482825590600052602060002090810192821562000b4e579160200282015b8281111562000b4d5782518260006101000a81548173ffffffffffffffffffffffffffffffffffffffff021916908373ffffffffffffffffffffffffffffffffffffffff1602179055509160200191906001019062000af3565b5b50905062000b5d919062000b61565b5090565b5b8082111562000b7c57600081600090555060010162000b62565b5090565b60008151905062000b918162000ce3565b92915050565b60006020828403121562000baa57600080fd5b600062000bba8482850162000b80565b91505092915050565b600062000bd08262000bd7565b9050919050565b600073ffffffffffffffffffffffffffffffffffffffff82169050919050565b6000819050919050565b6000600282049050600182168062000c1a57607f821691505b6020821081141562000c315762000c3062000cb4565b5b50919050565b600062000c448262000bf7565b91507fffffffffffffffffffffffffffffffffffffffffffffffffffffffffffffffff82141562000c7a5762000c7962000c85565b5b600182019050919050565b7f4e487b7100000000000000000000000000000000000000000000000000000000600052601160045260246000fd5b7f4e487b7100000000000000000000000000000000000000000000000000000000600052602260045260246000fd5b62000cee8162000bc3565b811462000cfa57600080fd5b50565b6157628062000d0d6000396000f3fe60806040526004361061027c5760003560e01c80635f303ae01161014f578063a22cb465116100c1578063e6b22ba41161007a578063e6b22ba4146109be578063e985e9c5146109e7578063f2fde38b14610a24578063fb99325d14610a4d578063fe8a8a6214610a8a578063fee8c41514610ac75761027c565b8063a22cb465146108b0578063b88d4fde146108d9578063c662e48114610902578063c87b56dd1461092d578063d5039a4e1461096a578063d691e43c146109955761027c565b806370a082311161011357806370a08231146107b2578063715018a6146107ef578063805ffcc71461080657806383197ef0146108435780638da5cb5b1461085a57806395d89b41146108855761027c565b80635f303ae0146106c65780636352211e146106f1578063656d636c1461072e5780636a627842146107575780636e34a482146107875761027c565b80632a55205a116101f357806340c10f19116101ac57806340c10f19146105b357806342842e0e146105e357806352e693a61461060c5780635487e9ca1461064957806355f804b3146106725780635ddf96011461069b5761027c565b80632a55205a146104905780632e1a7d4d146104ce57806331007767146104f757806332cb6b0c1461053457806339518b5e1461055f5780633f52e5891461058a5761027c565b80630ca1c5c9116102455780630ca1c5c91461038c5780630e0fd9e7146103b75780631132a587146103e05780631c19c2151461040b5780631eb821ed1461043b57806323b872dd146104675761027c565b8062d58d011461028157806301ffc9a7146102be57806306fdde03146102fb578063081812fc14610326578063095ea7b314610363575b600080fd5b34801561028d57600080fd5b506102a860048036038101906102a39190613c98565b610b04565b6040516102b591906151fa565b60405180910390f35b3480156102ca57600080fd5b506102e560048036038101906102e09190613e7b565b610d49565b6040516102f29190614da2565b60405180910390f35b34801561030757600080fd5b50610310610d5b565b60405161031d9190614dbd565b60405180910390f35b34801561033257600080fd5b5061034d60048036038101906103489190613f12565b610ded565b60405161035a9190614cc7565b60405180910390f35b34801561036f57600080fd5b5061038a60048036038101906103859190613e03565b610e72565b005b34801561039857600080fd5b506103a1610f8a565b6040516103ae91906151fa565b60405180910390f35b3480156103c357600080fd5b506103de60048036038101906103d99190613f12565b610f9b565b005b3480156103ec57600080fd5b506103f561113a565b60405161040291906151fa565b60405180910390f35b61042560048036038101906104209190613f12565b611145565b60405161043291906151fa565b60405180910390f35b34801561044757600080fd5b5061045061130b565b60405161045e929190614d57565b60405180910390f35b34801561047357600080fd5b5061048e60048036038101906104899190613cfd565b611355565b005b34801561049c57600080fd5b506104b760048036038101906104b29190613f8a565b6113b5565b6040516104c5929190614d2e565b60405180910390f35b3480156104da57600080fd5b506104f560048036038101906104f09190613f12565b6115a0565b005b34801561050357600080fd5b5061051e60048036038101906105199190613c98565b611673565b60405161052b91906151df565b60405180910390f35b34801561054057600080fd5b506105496116ca565b60405161055691906151df565b60405180910390f35b34801561056b57600080fd5b506105746116d0565b60405161058191906151fa565b60405180910390f35b34801561059657600080fd5b506105b160048036038101906105ac9190613f12565b6116d6565b005b6105cd60048036038101906105c89190613e03565b61175c565b6040516105da9190614d80565b60405180910390f35b3480156105ef57600080fd5b5061060a60048036038101906106059190613cfd565b6118b8565b005b34801561061857600080fd5b50610633600480360381019061062e9190613f12565b6118d8565b6040516106409190614da2565b60405180910390f35b34801561065557600080fd5b50610670600480360381019061066b9190613ecd565b611902565b005b34801561067e57600080fd5b5061069960048036038101906106949190613ecd565b611994565b005b3480156106a757600080fd5b506106b0611a26565b6040516106bd91906151fa565b60405180910390f35b3480156106d257600080fd5b506106db611a2c565b6040516106e89190614dbd565b60405180910390f35b3480156106fd57600080fd5b5061071860048036038101906107139190613f12565b611aba565b6040516107259190614cc7565b60405180910390f35b34801561073a57600080fd5b5061075560048036038101906107509190613f3b565b611b6c565b005b610771600480360381019061076c9190613c98565b611d90565b60405161077e91906151fa565b60405180910390f35b34801561079357600080fd5b5061079c611f1e565b6040516107a99190614dbd565b60405180910390f35b3480156107be57600080fd5b506107d960048036038101906107d49190613c98565b611fac565b6040516107e691906151fa565b60405180910390f35b3480156107fb57600080fd5b50610804612064565b005b34801561081257600080fd5b5061082d60048036038101906108289190613e03565b6120ec565b60405161083a9190614d80565b60405180910390f35b34801561084f57600080fd5b5061085861226c565b005b34801561086657600080fd5b5061086f61230d565b60405161087c9190614cc7565b60405180910390f35b34801561089157600080fd5b5061089a612337565b6040516108a79190614dbd565b60405180910390f35b3480156108bc57600080fd5b506108d760048036038101906108d29190613dc7565b6123c9565b005b3480156108e557600080fd5b5061090060048036038101906108fb9190613d4c565b6123df565b005b34801561090e57600080fd5b50610917612441565b60405161092491906151fa565b60405180910390f35b34801561093957600080fd5b50610954600480360381019061094f9190613f12565b61244c565b6040516109619190614dbd565b60405180910390f35b34801561097657600080fd5b5061097f61259d565b60405161098c91906151fa565b60405180910390f35b3480156109a157600080fd5b506109bc60048036038101906109b79190613e3f565b6125ae565b005b3480156109ca57600080fd5b506109e560048036038101906109e09190613f12565b6126a6565b005b3480156109f357600080fd5b50610a0e6004803603810190610a099190613cc1565b61272c565b604051610a1b9190614da2565b60405180910390f35b348015610a3057600080fd5b50610a4b6004803603810190610a469190613c98565b6127c0565b005b348015610a5957600080fd5b50610a746004803603810190610a6f9190613c98565b6128b8565b604051610a8191906151df565b60405180910390f35b348015610a9657600080fd5b50610ab16004803603810190610aac9190613f12565b61290f565b604051610abe91906151fa565b60405180910390f35b348015610ad357600080fd5b50610aee6004803603810190610ae99190613f12565b612bd1565b604051610afb91906151fa565b60405180910390f35b600080601160003373ffffffffffffffffffffffffffffffffffffffff1673ffffffffffffffffffffffffffffffffffffffff16815260200190815260200160002060009054906101000a900461ffff1661ffff1611610b99576040517f08c379a0000000000000000000000000000000000000000000000000000000008152600401610b9090614dff565b60405180910390fd5b6001601160003373ffffffffffffffffffffffffffffffffffffffff1673ffffffffffffffffffffffffffffffffffffffff16815260200190815260200160002060009054906101000a900461ffff16610bf391906153fc565b601160003373ffffffffffffffffffffffffffffffffffffffff1673ffffffffffffffffffffffffffffffffffffffff16815260200190815260200160002060006101000a81548161ffff021916908361ffff160217905550610c54612bee565b610c93576040517f08c379a0000000000000000000000000000000000000000000000000000000008152600401610c8a906150df565b60405180910390fd5b610c9d6007612c07565b6000610ca96007612c1d565b90506000610cb76008612c1d565b610cc16007612c1d565b610ccb919061531b565b9050610cd78483612c2b565b8060136000848152602001908152602001600020819055508373ffffffffffffffffffffffffffffffffffffffff167f9670c8b300c38cd3db8d3f9429dd902e67f418c4dd193e2497f06d20efc795608383604051610d37929190615215565b60405180910390a28192505050919050565b6000610d5482612df9565b9050919050565b606060008054610d6a90615540565b80601f0160208091040260200160405190810160405280929190818152602001828054610d9690615540565b8015610de35780601f10610db857610100808354040283529160200191610de3565b820191906000526020600020905b815481529060010190602001808311610dc657829003601f168201915b5050505050905090565b6000610df882612edb565b610e37576040517f08c379a0000000000000000000000000000000000000000000000000000000008152600401610e2e9061503f565b60405180910390fd5b6004600083815260200190815260200160002060009054906101000a900473ffffffffffffffffffffffffffffffffffffffff169050919050565b6000610e7d82611aba565b90508073ffffffffffffffffffffffffffffffffffffffff168373ffffffffffffffffffffffffffffffffffffffff161415610eee576040517f08c379a0000000000000000000000000000000000000000000000000000000008152600401610ee5906150ff565b60405180910390fd5b8073ffffffffffffffffffffffffffffffffffffffff16610f0d612f47565b73ffffffffffffffffffffffffffffffffffffffff161480610f3c5750610f3b81610f36612f47565b61272c565b5b610f7b576040517f08c379a0000000000000000000000000000000000000000000000000000000008152600401610f7290614f7f565b60405180910390fd5b610f858383612f4f565b505050565b6000610f966007612c1d565b905090565b600e54421015610fe0576040517f08c379a0000000000000000000000000000000000000000000000000000000008152600401610fd790614f3f565b60405180910390fd5b3373ffffffffffffffffffffffffffffffffffffffff1661100082611aba565b73ffffffffffffffffffffffffffffffffffffffff1614611056576040517f08c379a000000000000000000000000000000000000000000000000000000000815260040161104d90614e7f565b60405180910390fd5b600015156012600083815260200190815260200160002060009054906101000a900460ff161515146110bd576040517f08c379a00000000000000000000000000000000000000000000000000000000081526004016110b490614eff565b60405180910390fd5b60016012600083815260200190815260200160002060006101000a81548160ff0219169083151502179055503373ffffffffffffffffffffffffffffffffffffffff167f0e450f2a6c42e90846c4dda8bdb9982c3ffb54e1d986f0b57fd5feef7d6c1ccd8260405161112f91906151fa565b60405180910390a250565b662386f26fc1000081565b60003373ffffffffffffffffffffffffffffffffffffffff1661116783611aba565b73ffffffffffffffffffffffffffffffffffffffff16146111bd576040517f08c379a00000000000000000000000000000000000000000000000000000000081526004016111b490614fff565b60405180910390fd5b662386f26fc10000341015611207576040517f08c379a00000000000000000000000000000000000000000000000000000000081526004016111fe9061513f565b60405180910390fd5b600015156012600084815260200190815260200160002060009054906101000a900460ff1615151461126e576040517f08c379a0000000000000000000000000000000000000000000000000000000008152600401611265906150bf565b60405180910390fd5b6112786008612c07565b60006112846008612c1d565b61128e6007612c1d565b611298919061531b565b90508060136000858152602001908152602001600020819055503373ffffffffffffffffffffffffffffffffffffffff167f91696ceff949070d1dedc79748f824f868af2606b48b4c20f83d39e865e5e60c84836040516112fa929190615215565b60405180910390a280915050919050565b60098060000160009054906101000a900473ffffffffffffffffffffffffffffffffffffffff16908060000160149054906101000a90046bffffffffffffffffffffffff16905082565b611366611360612f47565b82613008565b6113a5576040517f08c379a000000000000000000000000000000000000000000000000000000000815260040161139c9061515f565b60405180910390fd5b6113b08383836130e6565b505050565b6000806000600a60008681526020019081526020016000206040518060400160405290816000820160009054906101000a900473ffffffffffffffffffffffffffffffffffffffff1673ffffffffffffffffffffffffffffffffffffffff1673ffffffffffffffffffffffffffffffffffffffff1681526020016000820160149054906101000a90046bffffffffffffffffffffffff166bffffffffffffffffffffffff166bffffffffffffffffffffffff16815250509050600073ffffffffffffffffffffffffffffffffffffffff16816000015173ffffffffffffffffffffffffffffffffffffffff16141561154b5760096040518060400160405290816000820160009054906101000a900473ffffffffffffffffffffffffffffffffffffffff1673ffffffffffffffffffffffffffffffffffffffff1673ffffffffffffffffffffffffffffffffffffffff1681526020016000820160149054906101000a90046bffffffffffffffffffffffff166bffffffffffffffffffffffff166bffffffffffffffffffffffff168152505090505b6000611555613342565b6bffffffffffffffffffffffff1682602001516bffffffffffffffffffffffff168661158191906153a2565b61158b9190615371565b90508160000151819350935050509250929050565b6115a8612f47565b73ffffffffffffffffffffffffffffffffffffffff166115c661230d565b73ffffffffffffffffffffffffffffffffffffffff161461161c576040517f08c379a00000000000000000000000000000000000000000000000000000000081526004016116139061505f565b60405180910390fd5b600061162661230d565b90508073ffffffffffffffffffffffffffffffffffffffff166108fc839081150290604051600060405180830381858888f1935050505015801561166e573d6000803e3d6000fd5b505050565b6000601160008373ffffffffffffffffffffffffffffffffffffffff1673ffffffffffffffffffffffffffffffffffffffff16815260200190815260200160002060009054906101000a900461ffff169050919050565b61271081565b600d5481565b6116de612f47565b73ffffffffffffffffffffffffffffffffffffffff166116fc61230d565b73ffffffffffffffffffffffffffffffffffffffff1614611752576040517f08c379a00000000000000000000000000000000000000000000000000000000081526004016117499061505f565b60405180910390fd5b80600d8190555050565b60606000821161176b57600080fd5b600a8211156117af576040517f08c379a00000000000000000000000000000000000000000000000000000000081526004016117a69061509f565b60405180910390fd5b8166f8b0a10e4700006117c291906153a2565b3410156117ce57600080fd5b60008267ffffffffffffffff811115611810577f4e487b7100000000000000000000000000000000000000000000000000000000600052604160045260246000fd5b60405190808252806020026020018201604052801561183e5781602001602082028036833780820191505090505b50905060005b838110156118ad5761185585611d90565b82828151811061188e577f4e487b7100000000000000000000000000000000000000000000000000000000600052603260045260246000fd5b60200260200101818152505080806118a590615572565b915050611844565b508091505092915050565b6118d3838383604051806020016040528060008152506123df565b505050565b60006012600083815260200190815260200160002060009054906101000a900460ff169050919050565b61190a612f47565b73ffffffffffffffffffffffffffffffffffffffff1661192861230d565b73ffffffffffffffffffffffffffffffffffffffff161461197e576040517f08c379a00000000000000000000000000000000000000000000000000000000081526004016119759061505f565b60405180910390fd5b8181600c919061198f929190613ac5565b505050565b61199c612f47565b73ffffffffffffffffffffffffffffffffffffffff166119ba61230d565b73ffffffffffffffffffffffffffffffffffffffff1614611a10576040517f08c379a0000000000000000000000000000000000000000000000000000000008152600401611a079061505f565b60405180910390fd5b8181600b9190611a21929190613ac5565b505050565b600e5481565b600c8054611a3990615540565b80601f0160208091040260200160405190810160405280929190818152602001828054611a6590615540565b8015611ab25780601f10611a8757610100808354040283529160200191611ab2565b820191906000526020600020905b815481529060010190602001808311611a9557829003601f168201915b505050505081565b6000806002600084815260200190815260200160002060009054906101000a900473ffffffffffffffffffffffffffffffffffffffff169050600073ffffffffffffffffffffffffffffffffffffffff168173ffffffffffffffffffffffffffffffffffffffff161415611b63576040517f08c379a0000000000000000000000000000000000000000000000000000000008152600401611b5a90614fbf565b60405180910390fd5b80915050919050565b611b74612f47565b73ffffffffffffffffffffffffffffffffffffffff16611b9261230d565b73ffffffffffffffffffffffffffffffffffffffff1614611be8576040517f08c379a0000000000000000000000000000000000000000000000000000000008152600401611bdf9061505f565b60405180910390fd5b611bf0613342565b6bffffffffffffffffffffffff16816bffffffffffffffffffffffff161115611c4e576040517f08c379a0000000000000000000000000000000000000000000000000000000008152600401611c459061517f565b60405180910390fd5b600073ffffffffffffffffffffffffffffffffffffffff168273ffffffffffffffffffffffffffffffffffffffff161415611cbe576040517f08c379a0000000000000000000000000000000000000000000000000000000008152600401611cb590614ddf565b60405180910390fd5b60405180604001604052808373ffffffffffffffffffffffffffffffffffffffff168152602001826bffffffffffffffffffffffff16815250600a600085815260200190815260200160002060008201518160000160006101000a81548173ffffffffffffffffffffffffffffffffffffffff021916908373ffffffffffffffffffffffffffffffffffffffff16021790555060208201518160000160146101000a8154816bffffffffffffffffffffffff02191690836bffffffffffffffffffffffff160217905550905050505050565b6000611d9a612bee565b611dd9576040517f08c379a0000000000000000000000000000000000000000000000000000000008152600401611dd0906150df565b60405180910390fd5b66f8b0a10e470000341015611e23576040517f08c379a0000000000000000000000000000000000000000000000000000000008152600401611e1a9061511f565b60405180910390fd5b600d54421015611e68576040517f08c379a0000000000000000000000000000000000000000000000000000000008152600401611e5f90614f5f565b60405180910390fd5b611e726007612c07565b6000611e7e6007612c1d565b90506000611e8c6008612c1d565b611e966007612c1d565b611ea0919061531b565b9050611eac8483612c2b565b8060136000848152602001908152602001600020819055508373ffffffffffffffffffffffffffffffffffffffff167f9670c8b300c38cd3db8d3f9429dd902e67f418c4dd193e2497f06d20efc795608383604051611f0c929190615215565b60405180910390a28192505050919050565b600b8054611f2b90615540565b80601f0160208091040260200160405190810160405280929190818152602001828054611f5790615540565b8015611fa45780601f10611f7957610100808354040283529160200191611fa4565b820191906000526020600020905b815481529060010190602001808311611f8757829003601f168201915b505050505081565b60008073ffffffffffffffffffffffffffffffffffffffff168273ffffffffffffffffffffffffffffffffffffffff16141561201d576040517f08c379a000000000000000000000000000000000000000000000000000000000815260040161201490614f9f565b60405180910390fd5b600360008373ffffffffffffffffffffffffffffffffffffffff1673ffffffffffffffffffffffffffffffffffffffff168152602001908152602001600020549050919050565b61206c612f47565b73ffffffffffffffffffffffffffffffffffffffff1661208a61230d565b73ffffffffffffffffffffffffffffffffffffffff16146120e0576040517f08c379a00000000000000000000000000000000000000000000000000000000081526004016120d79061505f565b60405180910390fd5b6120ea600061334c565b565b606081601160003373ffffffffffffffffffffffffffffffffffffffff1673ffffffffffffffffffffffffffffffffffffffff16815260200190815260200160002060009054906101000a900461ffff1661ffff161015612182576040517f08c379a0000000000000000000000000000000000000000000000000000000008152600401612179906151bf565b60405180910390fd5b60008267ffffffffffffffff8111156121c4577f4e487b7100000000000000000000000000000000000000000000000000000000600052604160045260246000fd5b6040519080825280602002602001820160405280156121f25781602001602082028036833780820191505090505b50905060005b838110156122615761220985610b04565b828281518110612242577f4e487b7100000000000000000000000000000000000000000000000000000000600052603260045260246000fd5b602002602001018181525050808061225990615572565b9150506121f8565b508091505092915050565b612274612f47565b73ffffffffffffffffffffffffffffffffffffffff1661229261230d565b73ffffffffffffffffffffffffffffffffffffffff16146122e8576040517f08c379a00000000000000000000000000000000000000000000000000000000081526004016122df9061505f565b60405180910390fd5b60006122f261230d565b90508073ffffffffffffffffffffffffffffffffffffffff16ff5b6000600660009054906101000a900473ffffffffffffffffffffffffffffffffffffffff16905090565b60606001805461234690615540565b80601f016020809104026020016040519081016040528092919081815260200182805461237290615540565b80156123bf5780601f10612394576101008083540402835291602001916123bf565b820191906000526020600020905b8154815290600101906020018083116123a257829003601f168201915b5050505050905090565b6123db6123d4612f47565b8383613412565b5050565b6123f06123ea612f47565b83613008565b61242f576040517f08c379a00000000000000000000000000000000000000000000000000000000081526004016124269061515f565b60405180910390fd5b61243b8484848461357f565b50505050565b66f8b0a10e47000081565b606061245782612edb565b612496576040517f08c379a000000000000000000000000000000000000000000000000000000000815260040161248d9061519f565b60405180910390fd5b6012600083815260200190815260200160002060009054906101000a900460ff161561252c5760006124c66135db565b905060008151116124e65760405180602001604052806000815250612524565b80612503601360008681526020019081526020016000205461366d565b604051602001612514929190614ca3565b6040516020818303038152906040525b915050612598565b600061253661381a565b905060008151116125565760405180602001604052806000815250612594565b80612573601360008681526020019081526020016000205461366d565b604051602001612584929190614ca3565b6040516020818303038152906040525b9150505b919050565b60006125a96008612c1d565b905090565b6125b6612f47565b73ffffffffffffffffffffffffffffffffffffffff166125d461230d565b73ffffffffffffffffffffffffffffffffffffffff161461262a576040517f08c379a00000000000000000000000000000000000000000000000000000000081526004016126219061505f565b60405180910390fd5b81600960000160006101000a81548173ffffffffffffffffffffffffffffffffffffffff021916908373ffffffffffffffffffffffffffffffffffffffff16021790555080600960000160146101000a8154816bffffffffffffffffffffffff02191690836bffffffffffffffffffffffff1602179055505050565b6126ae612f47565b73ffffffffffffffffffffffffffffffffffffffff166126cc61230d565b73ffffffffffffffffffffffffffffffffffffffff1614612722576040517f08c379a00000000000000000000000000000000000000000000000000000000081526004016127199061505f565b60405180910390fd5b80600e8190555050565b6000600560008473ffffffffffffffffffffffffffffffffffffffff1673ffffffffffffffffffffffffffffffffffffffff16815260200190815260200160002060008373ffffffffffffffffffffffffffffffffffffffff1673ffffffffffffffffffffffffffffffffffffffff16815260200190815260200160002060009054906101000a900460ff16905092915050565b6127c8612f47565b73ffffffffffffffffffffffffffffffffffffffff166127e661230d565b73ffffffffffffffffffffffffffffffffffffffff161461283c576040517f08c379a00000000000000000000000000000000000000000000000000000000081526004016128339061505f565b60405180910390fd5b600073ffffffffffffffffffffffffffffffffffffffff168173ffffffffffffffffffffffffffffffffffffffff1614156128ac576040517f08c379a00000000000000000000000000000000000000000000000000000000081526004016128a390614e5f565b60405180910390fd5b6128b58161334c565b50565b6000601060008373ffffffffffffffffffffffffffffffffffffffff1673ffffffffffffffffffffffffffffffffffffffff16815260200190815260200160002060009054906101000a900461ffff169050919050565b600080601060003373ffffffffffffffffffffffffffffffffffffffff1673ffffffffffffffffffffffffffffffffffffffff16815260200190815260200160002060009054906101000a900461ffff1661ffff16116129a4576040517f08c379a000000000000000000000000000000000000000000000000000000000815260040161299b90614e3f565b60405180910390fd5b6001601060003373ffffffffffffffffffffffffffffffffffffffff1673ffffffffffffffffffffffffffffffffffffffff16815260200190815260200160002060009054906101000a900461ffff166129fe91906153fc565b601060003373ffffffffffffffffffffffffffffffffffffffff1673ffffffffffffffffffffffffffffffffffffffff16815260200190815260200160002060006101000a81548161ffff021916908361ffff1602179055503373ffffffffffffffffffffffffffffffffffffffff16612a7783611aba565b73ffffffffffffffffffffffffffffffffffffffff1614612acd576040517f08c379a0000000000000000000000000000000000000000000000000000000008152600401612ac490614fdf565b60405180910390fd5b600015156012600084815260200190815260200160002060009054906101000a900460ff16151514612b34576040517f08c379a0000000000000000000000000000000000000000000000000000000008152600401612b2b906150bf565b60405180910390fd5b612b3e6008612c07565b6000612b4a6008612c1d565b612b546007612c1d565b612b5e919061531b565b90508060136000858152602001908152602001600020819055503373ffffffffffffffffffffffffffffffffffffffff167f91696ceff949070d1dedc79748f824f868af2606b48b4c20f83d39e865e5e60c8483604051612bc0929190615215565b60405180910390a280915050919050565b600060136000838152602001908152602001600020549050919050565b600061271061ffff16612c016007612c1d565b10905090565b6001816000016000828254019250508190555050565b600081600001549050919050565b600073ffffffffffffffffffffffffffffffffffffffff168273ffffffffffffffffffffffffffffffffffffffff161415612c9b576040517f08c379a0000000000000000000000000000000000000000000000000000000008152600401612c929061501f565b60405180910390fd5b612ca481612edb565b15612ce4576040517f08c379a0000000000000000000000000000000000000000000000000000000008152600401612cdb90614e9f565b60405180910390fd5b612cf0600083836138ac565b6001600360008473ffffffffffffffffffffffffffffffffffffffff1673ffffffffffffffffffffffffffffffffffffffff1681526020019081526020016000206000828254612d40919061531b565b92505081905550816002600083815260200190815260200160002060006101000a81548173ffffffffffffffffffffffffffffffffffffffff021916908373ffffffffffffffffffffffffffffffffffffffff160217905550808273ffffffffffffffffffffffffffffffffffffffff16600073ffffffffffffffffffffffffffffffffffffffff167fddf252ad1be2c89b69c2b068fc378daa952ba7f163c4a11628f55a4df523b3ef60405160405180910390a45050565b60007f80ac58cd000000000000000000000000000000000000000000000000000000007bffffffffffffffffffffffffffffffffffffffffffffffffffffffff1916827bffffffffffffffffffffffffffffffffffffffffffffffffffffffff19161480612ec457507f5b5e139f000000000000000000000000000000000000000000000000000000007bffffffffffffffffffffffffffffffffffffffffffffffffffffffff1916827bffffffffffffffffffffffffffffffffffffffffffffffffffffffff1916145b80612ed45750612ed3826138b1565b5b9050919050565b60008073ffffffffffffffffffffffffffffffffffffffff166002600084815260200190815260200160002060009054906101000a900473ffffffffffffffffffffffffffffffffffffffff1673ffffffffffffffffffffffffffffffffffffffff1614159050919050565b600033905090565b816004600083815260200190815260200160002060006101000a81548173ffffffffffffffffffffffffffffffffffffffff021916908373ffffffffffffffffffffffffffffffffffffffff160217905550808273ffffffffffffffffffffffffffffffffffffffff16612fc283611aba565b73ffffffffffffffffffffffffffffffffffffffff167f8c5be1e5ebec7d5bd14f71427d1e84f3dd0314c0f7b2291e5b200ac8c7c3b92560405160405180910390a45050565b600061301382612edb565b613052576040517f08c379a000000000000000000000000000000000000000000000000000000000815260040161304990614f1f565b60405180910390fd5b600061305d83611aba565b90508073ffffffffffffffffffffffffffffffffffffffff168473ffffffffffffffffffffffffffffffffffffffff1614806130cc57508373ffffffffffffffffffffffffffffffffffffffff166130b484610ded565b73ffffffffffffffffffffffffffffffffffffffff16145b806130dd57506130dc818561272c565b5b91505092915050565b8273ffffffffffffffffffffffffffffffffffffffff1661310682611aba565b73ffffffffffffffffffffffffffffffffffffffff161461315c576040517f08c379a00000000000000000000000000000000000000000000000000000000081526004016131539061507f565b60405180910390fd5b600073ffffffffffffffffffffffffffffffffffffffff168273ffffffffffffffffffffffffffffffffffffffff1614156131cc576040517f08c379a00000000000000000000000000000000000000000000000000000000081526004016131c390614ebf565b60405180910390fd5b6131d78383836138ac565b6131e2600082612f4f565b6001600360008573ffffffffffffffffffffffffffffffffffffffff1673ffffffffffffffffffffffffffffffffffffffff16815260200190815260200160002060008282546132329190615430565b925050819055506001600360008473ffffffffffffffffffffffffffffffffffffffff1673ffffffffffffffffffffffffffffffffffffffff1681526020019081526020016000206000828254613289919061531b565b92505081905550816002600083815260200190815260200160002060006101000a81548173ffffffffffffffffffffffffffffffffffffffff021916908373ffffffffffffffffffffffffffffffffffffffff160217905550808273ffffffffffffffffffffffffffffffffffffffff168473ffffffffffffffffffffffffffffffffffffffff167fddf252ad1be2c89b69c2b068fc378daa952ba7f163c4a11628f55a4df523b3ef60405160405180910390a4505050565b6000612710905090565b6000600660009054906101000a900473ffffffffffffffffffffffffffffffffffffffff16905081600660006101000a81548173ffffffffffffffffffffffffffffffffffffffff021916908373ffffffffffffffffffffffffffffffffffffffff1602179055508173ffffffffffffffffffffffffffffffffffffffff168173ffffffffffffffffffffffffffffffffffffffff167f8be0079c531659141344cd1fd0a4f28419497f9722a3daafe3b4186f6b6457e060405160405180910390a35050565b8173ffffffffffffffffffffffffffffffffffffffff168373ffffffffffffffffffffffffffffffffffffffff161415613481576040517f08c379a000000000000000000000000000000000000000000000000000000000815260040161347890614edf565b60405180910390fd5b80600560008573ffffffffffffffffffffffffffffffffffffffff1673ffffffffffffffffffffffffffffffffffffffff16815260200190815260200160002060008473ffffffffffffffffffffffffffffffffffffffff1673ffffffffffffffffffffffffffffffffffffffff16815260200190815260200160002060006101000a81548160ff0219169083151502179055508173ffffffffffffffffffffffffffffffffffffffff168373ffffffffffffffffffffffffffffffffffffffff167f17307eab39ab6107e8899845ad3d59bd9653f200f220920489ca2b5937696c31836040516135729190614da2565b60405180910390a3505050565b61358a8484846130e6565b6135968484848461391b565b6135d5576040517f08c379a00000000000000000000000000000000000000000000000000000000081526004016135cc90614e1f565b60405180910390fd5b50505050565b6060600c80546135ea90615540565b80601f016020809104026020016040519081016040528092919081815260200182805461361690615540565b80156136635780601f1061363857610100808354040283529160200191613663565b820191906000526020600020905b81548152906001019060200180831161364657829003601f168201915b5050505050905090565b606060008214156136b5576040518060400160405280600181526020017f30000000000000000000000000000000000000000000000000000000000000008152509050613815565b600082905060005b600082146136e75780806136d090615572565b915050600a826136e09190615371565b91506136bd565b60008167ffffffffffffffff811115613729577f4e487b7100000000000000000000000000000000000000000000000000000000600052604160045260246000fd5b6040519080825280601f01601f19166020018201604052801561375b5781602001600182028036833780820191505090505b5090505b6000851461380e576001826137749190615430565b9150600a8561378391906155bb565b603061378f919061531b565b60f81b8183815181106137cb577f4e487b7100000000000000000000000000000000000000000000000000000000600052603260045260246000fd5b60200101907effffffffffffffffffffffffffffffffffffffffffffffffffffffffffffff1916908160001a905350600a856138079190615371565b945061375f565b8093505050505b919050565b6060600b805461382990615540565b80601f016020809104026020016040519081016040528092919081815260200182805461385590615540565b80156138a25780601f10613877576101008083540402835291602001916138a2565b820191906000526020600020905b81548152906001019060200180831161388557829003601f168201915b5050505050905090565b505050565b60007f01ffc9a7000000000000000000000000000000000000000000000000000000007bffffffffffffffffffffffffffffffffffffffffffffffffffffffff1916827bffffffffffffffffffffffffffffffffffffffffffffffffffffffff1916149050919050565b600061393c8473ffffffffffffffffffffffffffffffffffffffff16613ab2565b15613aa5578373ffffffffffffffffffffffffffffffffffffffff1663150b7a02613965612f47565b8786866040518563ffffffff1660e01b81526004016139879493929190614ce2565b602060405180830381600087803b1580156139a157600080fd5b505af19250505080156139d257506040513d601f19601f820116820180604052508101906139cf9190613ea4565b60015b613a55573d8060008114613a02576040519150601f19603f3d011682016040523d82523d6000602084013e613a07565b606091505b50600081511415613a4d576040517f08c379a0000000000000000000000000000000000000000000000000000000008152600401613a4490614e1f565b60405180910390fd5b805181602001fd5b63150b7a0260e01b7bffffffffffffffffffffffffffffffffffffffffffffffffffffffff1916817bffffffffffffffffffffffffffffffffffffffffffffffffffffffff191614915050613aaa565b600190505b949350505050565b600080823b905060008111915050919050565b828054613ad190615540565b90600052602060002090601f016020900481019282613af35760008555613b3a565b82601f10613b0c57803560ff1916838001178555613b3a565b82800160010185558215613b3a579182015b82811115613b39578235825591602001919060010190613b1e565b5b509050613b479190613b4b565b5090565b5b80821115613b64576000816000905550600101613b4c565b5090565b6000613b7b613b768461526f565b61523e565b905082815260208101848484011115613b9357600080fd5b613b9e8482856154fe565b509392505050565b600081359050613bb5816156b9565b92915050565b600081359050613bca816156d0565b92915050565b600081359050613bdf816156e7565b92915050565b600081519050613bf4816156e7565b92915050565b600082601f830112613c0b57600080fd5b8135613c1b848260208601613b68565b91505092915050565b60008083601f840112613c3657600080fd5b8235905067ffffffffffffffff811115613c4f57600080fd5b602083019150836001820283011115613c6757600080fd5b9250929050565b600081359050613c7d816156fe565b92915050565b600081359050613c9281615715565b92915050565b600060208284031215613caa57600080fd5b6000613cb884828501613ba6565b91505092915050565b60008060408385031215613cd457600080fd5b6000613ce285828601613ba6565b9250506020613cf385828601613ba6565b9150509250929050565b600080600060608486031215613d1257600080fd5b6000613d2086828701613ba6565b9350506020613d3186828701613ba6565b9250506040613d4286828701613c6e565b9150509250925092565b60008060008060808587031215613d6257600080fd5b6000613d7087828801613ba6565b9450506020613d8187828801613ba6565b9350506040613d9287828801613c6e565b925050606085013567ffffffffffffffff811115613daf57600080fd5b613dbb87828801613bfa565b91505092959194509250565b60008060408385031215613dda57600080fd5b6000613de885828601613ba6565b9250506020613df985828601613bbb565b9150509250929050565b60008060408385031215613e1657600080fd5b6000613e2485828601613ba6565b9250506020613e3585828601613c6e565b9150509250929050565b60008060408385031215613e5257600080fd5b6000613e6085828601613ba6565b9250506020613e7185828601613c83565b9150509250929050565b600060208284031215613e8d57600080fd5b6000613e9b84828501613bd0565b91505092915050565b600060208284031215613eb657600080fd5b6000613ec484828501613be5565b91505092915050565b60008060208385031215613ee057600080fd5b600083013567ffffffffffffffff811115613efa57600080fd5b613f0685828601613c24565b92509250509250929050565b600060208284031215613f2457600080fd5b6000613f3284828501613c6e565b91505092915050565b600080600060608486031215613f5057600080fd5b6000613f5e86828701613c6e565b9350506020613f6f86828701613ba6565b9250506040613f8086828701613c83565b9150509250925092565b60008060408385031215613f9d57600080fd5b6000613fab85828601613c6e565b9250506020613fbc85828601613c6e565b9150509250929050565b6000613fd28383614c76565b60208301905092915050565b613fe781615464565b82525050565b6000613ff8826152af565b61400281856152dd565b935061400d8361529f565b8060005b8381101561403e5781516140258882613fc6565b9750614030836152d0565b925050600181019050614011565b5085935050505092915050565b61405481615476565b82525050565b6000614065826152ba565b61406f81856152ee565b935061407f81856020860161550d565b614088816156a8565b840191505092915050565b600061409e826152c5565b6140a881856152ff565b93506140b881856020860161550d565b6140c1816156a8565b840191505092915050565b60006140d7826152c5565b6140e18185615310565b93506140f181856020860161550d565b80840191505092915050565b600061410a601b836152ff565b91507f455243323938313a20696e76616c696420706172616d657465727300000000006000830152602082019050919050565b600061414a6026836152ff565b91507f796f75206861766520302072656d61696e696e67207072652d72656c6561736560008301527f206d696e747300000000000000000000000000000000000000000000000000006020830152604082019050919050565b60006141b06032836152ff565b91507f4552433732313a207472616e7366657220746f206e6f6e20455243373231526560008301527f63656976657220696d706c656d656e74657200000000000000000000000000006020830152604082019050919050565b60006142166021836152ff565b91507f796f75206861766520302072656d61696e696e672066726565207265726f6c6c60008301527f73000000000000000000000000000000000000000000000000000000000000006020830152604082019050919050565b600061427c6026836152ff565b91507f4f776e61626c653a206e6577206f776e657220697320746865207a65726f206160008301527f64647265737300000000000000000000000000000000000000000000000000006020830152604082019050919050565b60006142e26026836152ff565b91507f796f75206d757374206f776e207468697320746f6b656e20746f20726571756560008301527f73742041727400000000000000000000000000000000000000000000000000006020830152604082019050919050565b6000614348601c836152ff565b91507f4552433732313a20746f6b656e20616c7265616479206d696e746564000000006000830152602082019050919050565b60006143886024836152ff565b91507f4552433732313a207472616e7366657220746f20746865207a65726f2061646460008301527f72657373000000000000000000000000000000000000000000000000000000006020830152604082019050919050565b60006143ee6019836152ff565b91507f4552433732313a20617070726f766520746f2063616c6c6572000000000000006000830152602082019050919050565b600061442e602e836152ff565b91507f6172742068617320616c7265616479206265656e20726571756573746564206660008301527f6f72207468617420566f786d6f6e0000000000000000000000000000000000006020830152604082019050919050565b6000614494602c836152ff565b91507f4552433732313a206f70657261746f7220717565727920666f72206e6f6e657860008301527f697374656e7420746f6b656e00000000000000000000000000000000000000006020830152604082019050919050565b60006144fa6021836152ff565b91507f796f752063616e6e6f7420667265657a6520796f757220566f786d6f6e20796560008301527f74000000000000000000000000000000000000000000000000000000000000006020830152604082019050919050565b6000614560601e836152ff565b91507f7075626c6963206d696e74206861736e277420737461727465642079657400006000830152602082019050919050565b60006145a06038836152ff565b91507f4552433732313a20617070726f76652063616c6c6572206973206e6f74206f7760008301527f6e6572206e6f7220617070726f76656420666f7220616c6c00000000000000006020830152604082019050919050565b6000614606602a836152ff565b91507f4552433732313a2062616c616e636520717565727920666f7220746865207a6560008301527f726f2061646472657373000000000000000000000000000000000000000000006020830152604082019050919050565b600061466c6029836152ff565b91507f4552433732313a206f776e657220717565727920666f72206e6f6e657869737460008301527f656e7420746f6b656e00000000000000000000000000000000000000000000006020830152604082019050919050565b60006146d26020836152ff565b91507f796f75206d757374206f776e2074686520746f6b656e20746f207265726f6c6c6000830152602082019050919050565b60006147126021836152ff565b91507f796f75206d757374206f776e207468697320746f6b656e20746f207265726f6c60008301527f6c000000000000000000000000000000000000000000000000000000000000006020830152604082019050919050565b60006147786020836152ff565b91507f4552433732313a206d696e7420746f20746865207a65726f20616464726573736000830152602082019050919050565b60006147b8602c836152ff565b91507f4552433732313a20617070726f76656420717565727920666f72206e6f6e657860008301527f697374656e7420746f6b656e00000000000000000000000000000000000000006020830152604082019050919050565b600061481e6020836152ff565b91507f4f776e61626c653a2063616c6c6572206973206e6f7420746865206f776e65726000830152602082019050919050565b600061485e6029836152ff565b91507f4552433732313a207472616e73666572206f6620746f6b656e2074686174206960008301527f73206e6f74206f776e00000000000000000000000000000000000000000000006020830152604082019050919050565b60006148c4601e836152ff565b91507f6d617820313020766f786d6f6e7320706572207472616e73616374696f6e00006000830152602082019050919050565b60006149046014836152ff565b91507f7468697320746f6b656e2069732066726f7a656e0000000000000000000000006000830152602082019050919050565b6000614944604d836152ff565b91507f6d6178206c69766520737570706c7920726561636865642c20746f206765742060008301527f61206e657720566f786d6f6e20796f75276c6c206e65656420746f207265726f60208301527f6c6c20616e206f6c64206f6e65000000000000000000000000000000000000006040830152606082019050919050565b60006149d06021836152ff565b91507f4552433732313a20617070726f76616c20746f2063757272656e74206f776e6560008301527f72000000000000000000000000000000000000000000000000000000000000006020830152604082019050919050565b6000614a36602a836152ff565b91507f6e6f7420656e6f7567682065746865722c206d696e74696e6720636f7374732060008301527f302e3037206574686572000000000000000000000000000000000000000000006020830152604082019050919050565b6000614a9c602c836152ff565b91507f6e6f7420656e6f7567682065746865722c207265726f6c6c696e6720636f737460008301527f7320302e303120657468657200000000000000000000000000000000000000006020830152604082019050919050565b6000614b026031836152ff565b91507f4552433732313a207472616e736665722063616c6c6572206973206e6f74206f60008301527f776e6572206e6f7220617070726f7665640000000000000000000000000000006020830152604082019050919050565b6000614b68602a836152ff565b91507f455243323938313a20726f79616c7479206665652077696c6c2065786365656460008301527f2073616c655072696365000000000000000000000000000000000000000000006020830152604082019050919050565b6000614bce6014836152ff565b91507f746f6b656e20646f6573206e6f742065786973740000000000000000000000006000830152602082019050919050565b6000614c0e6031836152ff565b91507f796f7520646f6e2774206861766520656e6f7567682072656d61696e696e672060008301527f7072652d72656c65617365206d696e74730000000000000000000000000000006020830152604082019050919050565b614c70816154ae565b82525050565b614c7f816154dc565b82525050565b614c8e816154dc565b82525050565b614c9d816154e6565b82525050565b6000614caf82856140cc565b9150614cbb82846140cc565b91508190509392505050565b6000602082019050614cdc6000830184613fde565b92915050565b6000608082019050614cf76000830187613fde565b614d046020830186613fde565b614d116040830185614c85565b8181036060830152614d23818461405a565b905095945050505050565b6000604082019050614d436000830185613fde565b614d506020830184614c85565b9392505050565b6000604082019050614d6c6000830185613fde565b614d796020830184614c94565b9392505050565b60006020820190508181036000830152614d9a8184613fed565b905092915050565b6000602082019050614db7600083018461404b565b92915050565b60006020820190508181036000830152614dd78184614093565b905092915050565b60006020820190508181036000830152614df8816140fd565b9050919050565b60006020820190508181036000830152614e188161413d565b9050919050565b60006020820190508181036000830152614e38816141a3565b9050919050565b60006020820190508181036000830152614e5881614209565b9050919050565b60006020820190508181036000830152614e788161426f565b9050919050565b60006020820190508181036000830152614e98816142d5565b9050919050565b60006020820190508181036000830152614eb88161433b565b9050919050565b60006020820190508181036000830152614ed88161437b565b9050919050565b60006020820190508181036000830152614ef8816143e1565b9050919050565b60006020820190508181036000830152614f1881614421565b9050919050565b60006020820190508181036000830152614f3881614487565b9050919050565b60006020820190508181036000830152614f58816144ed565b9050919050565b60006020820190508181036000830152614f7881614553565b9050919050565b60006020820190508181036000830152614f9881614593565b9050919050565b60006020820190508181036000830152614fb8816145f9565b9050919050565b60006020820190508181036000830152614fd88161465f565b9050919050565b60006020820190508181036000830152614ff8816146c5565b9050919050565b6000602082019050818103600083015261501881614705565b9050919050565b600060208201905081810360008301526150388161476b565b9050919050565b60006020820190508181036000830152615058816147ab565b9050919050565b6000602082019050818103600083015261507881614811565b9050919050565b6000602082019050818103600083015261509881614851565b9050919050565b600060208201905081810360008301526150b8816148b7565b9050919050565b600060208201905081810360008301526150d8816148f7565b9050919050565b600060208201905081810360008301526150f881614937565b9050919050565b60006020820190508181036000830152615118816149c3565b9050919050565b6000602082019050818103600083015261513881614a29565b9050919050565b6000602082019050818103600083015261515881614a8f565b9050919050565b6000602082019050818103600083015261517881614af5565b9050919050565b6000602082019050818103600083015261519881614b5b565b9050919050565b600060208201905081810360008301526151b881614bc1565b9050919050565b600060208201905081810360008301526151d881614c01565b9050919050565b60006020820190506151f46000830184614c67565b92915050565b600060208201905061520f6000830184614c85565b92915050565b600060408201905061522a6000830185614c85565b6152376020830184614c85565b9392505050565b6000604051905081810181811067ffffffffffffffff8211171561526557615264615679565b5b8060405250919050565b600067ffffffffffffffff82111561528a57615289615679565b5b601f19601f8301169050602081019050919050565b6000819050602082019050919050565b600081519050919050565b600081519050919050565b600081519050919050565b6000602082019050919050565b600082825260208201905092915050565b600082825260208201905092915050565b600082825260208201905092915050565b600081905092915050565b6000615326826154dc565b9150615331836154dc565b9250827fffffffffffffffffffffffffffffffffffffffffffffffffffffffffffffffff03821115615366576153656155ec565b5b828201905092915050565b600061537c826154dc565b9150615387836154dc565b9250826153975761539661561b565b5b828204905092915050565b60006153ad826154dc565b91506153b8836154dc565b9250817fffffffffffffffffffffffffffffffffffffffffffffffffffffffffffffffff04831182151516156153f1576153f06155ec565b5b828202905092915050565b6000615407826154ae565b9150615412836154ae565b925082821015615425576154246155ec565b5b828203905092915050565b600061543b826154dc565b9150615446836154dc565b925082821015615459576154586155ec565b5b828203905092915050565b600061546f826154bc565b9050919050565b60008115159050919050565b60007fffffffff0000000000000000000000000000000000000000000000000000000082169050919050565b600061ffff82169050919050565b600073ffffffffffffffffffffffffffffffffffffffff82169050919050565b6000819050919050565b60006bffffffffffffffffffffffff82169050919050565b82818337600083830152505050565b60005b8381101561552b578082015181840152602081019050615510565b8381111561553a576000848401525b50505050565b6000600282049050600182168061555857607f821691505b6020821081141561556c5761556b61564a565b5b50919050565b600061557d826154dc565b91507fffffffffffffffffffffffffffffffffffffffffffffffffffffffffffffffff8214156155b0576155af6155ec565b5b600182019050919050565b60006155c6826154dc565b91506155d1836154dc565b9250826155e1576155e061561b565b5b828206905092915050565b7f4e487b7100000000000000000000000000000000000000000000000000000000600052601160045260246000fd5b7f4e487b7100000000000000000000000000000000000000000000000000000000600052601260045260246000fd5b7f4e487b7100000000000000000000000000000000000000000000000000000000600052602260045260246000fd5b7f4e487b7100000000000000000000000000000000000000000000000000000000600052604160045260246000fd5b6000601f19601f8301169050919050565b6156c281615464565b81146156cd57600080fd5b50565b6156d981615476565b81146156e457600080fd5b50565b6156f081615482565b81146156fb57600080fd5b50565b615707816154dc565b811461571257600080fd5b50565b61571e816154e6565b811461572957600080fd5b5056fea26469706673582212204e8edcc07017407a793101887c0927f7f7168d5519e595097534a82ea765598164736f6c63430008000033",
  "linkReferences": {},
  "deployedLinkReferences": {}
}